:100000000C9472000C94940A0C9493000C9493003A
:100010000C9493000C94990E0C946E0E0C94930017
:100020000C9493000C9493000C9493000C94930004
:100030000C9493000C9493000C9493000C949300F4
:100040000C9493000C9493000C9493000C949300E4
:100050000C9493000C9493000C9493000C949300D4
:100060000C9493000C9493000C9493000C949300C4
:100070000C9493000C9493000C9493000C949300B4
:100080000C9493000C9493000C9493000C949300A4
:100090000C9493000C9493000C9493000C94930094
:1000A0000C9493000C9493000C9493000C94930084
:1000B0000C9493000C9493000C9493000C94930074
:1000C0000C9493000C9493000C9493000C94930064
:1000D0000C9493000C9493000C9493000C94930054
:1000E0000C94930011241FBECFEFD1E2DEBFCDBF31
:1000F00000E00CBF13E0A0E0B2E0EEE1F9E801E0BF
:100100000BBF02C007900D92A830B107D9F713E0DA
:10011000A8E0B3E001C01D92AB33B107E1F70E9444
:100120000B200C948DC40C9400000F931F93DF934D
:10013000CF93CDB7DEB7C057D0400FB6F894DEBF2F
:100140000FBECDBFFE01E359FF4F80E090E0A0E875
:10015000BFE380839183A283B3838E0107591F4F2E
:10016000FE01E359FF4F608171818281938126E610
:1001700036E646E655E40E944ABFDC01CB01F801B1
:1001800080839183A283B383FE01E759FF4F60818F
:1001900071818281938120E030E040E85FE30E943A
:1001A00050C1882344F4FE01E959FF4F81E090E0FB
:1001B0009183808364C0FE01E759FF4F60817181A4
:1001C0008281938120E03FEF4FE757E40E94F0C027
:1001D00018160CF043C0FE01E359FF4F6081718196
:1001E0008281938120E030E040E251E40E944ABFE6
:1001F000DC01CB018E0109591F4FBC01CD010E94CA
:1002000074BDDC01CB01F801918380831FC0FE0126
:10021000EB59FF4F80E791E091838083FE01EB591A
:10022000FF4F808191810197F1F7FE01EB59FF4F5C
:1002300091838083DE01A959BF4FFE01E959FF4F29
:1002400080819181019711969C938E93FE01E959CB
:10025000FF4F808191810097D1F627C08E01095907
:100260001F4FFE01E759FF4F6081718182819381A9
:100270000E9474BDDC01CB01F80191838083DE0113
:10028000AD59BF4FFE01E959FF4F808191818D9398
:100290009C93FE01ED59FF4F808191810197F1F709
:1002A000FE01ED59FF4F91838083A8E2B0E0E8E2C0
:1002B000F0E080818E7F8C93A8E2B0E0E8E2F0E08D
:1002C00080818D7F8C93E8E2F0E080E38083A8E278
:1002D000B0E0E8E2F0E0808184608C93FE01E15AB6
:1002E000FF4F80E090E0A0EAB0E480839183A28396
:1002F000B3838E01055A1F4FFE01E15AFF4F608103
:1003000071818281938126E636E646E655E40E94B5
:100310004ABFDC01CB01F80180839183A283B383C0
:10032000FE01E55AFF4F608171818281938120E057
:1003300030E040E85FE30E9450C1882344F4FE01AE
:10034000E75AFF4F81E090E09183808364C0FE0113
:10035000E55AFF4F608171818281938120E03FEFF8
:100360004FE757E40E94F0C018160CF043C0FE019E
:10037000E15AFF4F608171818281938120E030E0FA
:1003800040E251E40E944ABFDC01CB018E01075AD2
:100390001F4FBC01CD010E9474BDDC01CB01F801EF
:1003A000918380831FC0FE01E95AFF4F80E791E0EF
:1003B00091838083FE01E95AFF4F808191810197EB
:1003C000F1F7FE01E95AFF4F91838083DE01A75ABE
:1003D000BF4FFE01E75AFF4F80819181019711962F
:1003E0009C938E93FE01E75AFF4F80819181009785
:1003F000D1F627C08E01075A1F4FFE01E55AFF4F65
:1004000060817181828193810E9474BDDC01CB0186
:10041000F80191838083DE01AB5ABF4FFE01E75A9A
:10042000FF4F808191818D939C93FE01EB5AFF4F8A
:10043000808191810197F1F7FE01EB5AFF4F918383
:100440008083A8E2B0E0E8E2F0E080818B7F8C93CB
:10045000FE01EF5AFF4F80E090E0A0E8BFE3808309
:100460009183A283B3838E01035B1F4FFE01EF5A7A
:10047000FF4F608171818281938126E636E646E6F0
:1004800055E40E944ABFDC01CB01F80180839183CF
:10049000A283B383FE01E35BFF4F608171818281A0
:1004A000938120E030E040E85FE30E9450C1882360
:1004B00044F4FE01E55BFF4F81E090E0918380838F
:1004C00064C0FE01E35BFF4F608171818281938193
:1004D00020E03FEF4FE757E40E94F0C018160CF001
:1004E00043C0FE01EF5AFF4F608171818281938189
:1004F00020E030E040E251E40E944ABFDC01CB0141
:100500008E01055B1F4FBC01CD010E9474BDDC0153
:10051000CB01F801918380831FC0FE01E75BFF4F91
:1005200080E791E091838083FE01E75BFF4F80814C
:1005300091810197F1F7FE01E75BFF4F9183808383
:10054000DE01A55BBF4FFE01E55BFF4F808191811E
:10055000019711969C938E93FE01E55BFF4F80817E
:1005600091810097D1F627C08E01055B1F4FFE01D8
:10057000E35BFF4F60817181828193810E9474BD32
:10058000DC01CB01F80191838083DE01A95BBF4FC1
:10059000FE01E55BFF4F808191818D939C93FE016D
:1005A000E95BFF4F808191810197F1F7FE01E95BE3
:1005B000FF4F91838083A8E2B0E0E8E2F0E0808121
:1005C0008E7F8C93A8E2B0E0E8E2F0E080818D7F3E
:1005D0008C93E8E2F0E080E38083A8E2B0E0E8E218
:1005E000F0E0808184608C93FE01ED5BFF4F80E042
:1005F00090E0A0EAB0E480839183A283B3838E016C
:10060000015C1F4FFE01ED5BFF4F608171818281B4
:10061000938126E636E646E655E40E944ABFDC01B1
:10062000CB01F80180839183A283B383FE01FF96FF
:10063000608171818281938120E030E040E85FE356
:100640000E9450C188232CF481E090E09EAF8DAFD2
:1006500046C0FE01FF96608171818281938120E016
:100660003FEF4FE757E40E94F0C0181664F5FE0113
:10067000ED5BFF4F608171818281938120E030E0EA
:1006800040E251E40E944ABFDC01CB01BC01CD0134
:100690000E9474BDDC01CB019EAF8DAF0FC080E71F
:1006A00091E09CAF8BAF8BAD9CAD0197F1F79CAF08
:1006B0008BAF8DAD9EAD01979EAF8DAF8DAD9EADD5
:1006C000009769F716C0FE01FF96608171818281F3
:1006D00093810E9474BDDC01CB019EAF8DAF8DADC7
:1006E0009EAD9AAF89AF89AD9AAD0197F1F79AAFF8
:1006F00089AFA8E2B0E0E8E2F0E080818B7F8C93E4
:1007000080E090E0A0E8BFE38DAB9EABAFABB8AFAD
:100710006DA97EA98FA998AD26E636E646E655E492
:100720000E944ABFDC01CB0189AB9AABABABBCAB3F
:1007300069A97AA98BA99CA920E030E040E85FE391
:100740000E9450C188232CF481E090E098AB8FA7E1
:100750003FC069A97AA98BA99CA920E03FEF4FE788
:1007600057E40E94F0C018164CF56DA97EA98FA918
:1007700098AD20E030E040E251E40E944ABFDC0145
:10078000CB01BC01CD010E9474BDDC01CB0198AB53
:100790008FA70FC080E791E09EA78DA78DA59EA58E
:1007A0000197F1F79EA78DA78FA598A9019798AB00
:1007B0008FA78FA598A9009769F714C069A97AA98E
:1007C0008BA99CA90E9474BDDC01CB0198AB8FA7BB
:1007D0008FA598A99CA78BA78BA59CA50197F1F73E
:1007E0009CA78BA7A8E2B0E0E8E2F0E080818E7FD2
:1007F0008C93A8E2B0E0E8E2F0E080818D7F8C93FA
:10080000E8E2F0E080E38083A8E2B0E0E8E2F0E034
:10081000808184608C9380E090E0A0EAB0E48FA3B4
:1008200098A7A9A7BAA76FA178A589A59AA526E632
:1008300036E646E655E40E944ABFDC01CB018BA3B5
:100840009CA3ADA3BEA36BA17CA18DA19EA120E022
:1008500030E040E85FE30E9450C188232CF481E03F
:1008600090E09AA389A33FC06BA17CA18DA19EA11A
:1008700020E03FEF4FE757E40E94F0C018164CF518
:100880006FA178A589A59AA520E030E040E251E467
:100890000E944ABFDC01CB01BC01CD010E9474BDA6
:1008A000DC01CB019AA389A30FC080E791E098A354
:1008B0008F8F8F8D98A10197F1F798A38F8F89A1C2
:1008C0009AA101979AA389A389A19AA1009769F790
:1008D00014C06BA17CA18DA19EA10E9474BDDC01FE
:1008E000CB019AA389A389A19AA19E8F8D8F8D8D0B
:1008F0009E8D0197F1F79E8F8D8FA8E2B0E0E8E220
:10090000F0E080818B7F8C9380E090E0A0E8BFE3F3
:10091000898F9A8FAB8FBC8F698D7A8D8B8D9C8DD3
:1009200026E636E646E655E40E944ABFDC01CB01E6
:100930008D8B9E8BAF8BB88F6D897E898F89988DBB
:1009400020E030E040E85FE30E9450C188232CF4AF
:1009500081E090E09C8B8B8B3FC06D897E898F8975
:10096000988D20E03FEF4FE757E40E94F0C0181643
:100970004CF5698D7A8D8B8D9C8D20E030E040E2C6
:1009800051E40E944ABFDC01CB01BC01CD010E94B1
:1009900074BDDC01CB019C8B8B8B0FC080E791E099
:1009A0009A8B898B89899A890197F1F79A8B898B20
:1009B0008B899C8901979C8B8B8B8B899C89009759
:1009C00069F714C06D897E898F89988D0E9474BDE6
:1009D000DC01CB019C8B8B8B8B899C89988B8F87BF
:1009E0008F8598890197F1F7988B8F87A8E2B0E0FF
:1009F000E8E2F0E080818E7F8C93A8E2B0E0E8E24C
:100A0000F0E080818D7F8C93E8E2F0E080E28083EB
:100A1000A8E2B0E0E8E2F0E0808184608C9380E0BE
:100A200090E0A0EAB0E48B879C87AD87BE876B859A
:100A30007C858D859E8526E636E646E655E40E9451
:100A40004ABFDC01CB018F839887A987BA876F8162
:100A5000788589859A8520E030E040E85FE30E9450
:100A600050C188232CF481E090E09E838D833FC0A9
:100A70006F81788589859A8520E03FEF4FE757E4BD
:100A80000E94F0C018164CF56B857C858D859E857F
:100A900020E030E040E251E40E944ABFDC01CB019B
:100AA000BC01CD010E9474BDDC01CB019E838D830E
:100AB0000FC080E791E09C838B838B819C810197A1
:100AC000F1F79C838B838D819E8101979E838D831B
:100AD0008D819E81009769F714C06F817885898523
:100AE0009A850E9474BDDC01CB019E838D838D812C
:100AF0009E819A83898389819A810197F1F79A83EC
:100B00008983A8E2B0E0E8E2F0E080818B7F8C93FB
:100B1000C059DF4F0FB6F894DEBF0FBECDBFCF91E7
:100B2000DF911F910F910895DF93CF93CDB7DEB77B
:100B30002E970FB6F894DEBF0FBECDBF80E090E0D9
:100B4000A0E8BFE38B879C87AD87BE876B857C85DC
:100B50008D859E8526E636E646E655E40E944ABF28
:100B6000DC01CB018F839887A987BA876F8178854D
:100B700089859A8520E030E040E85FE30E9450C11B
:100B800088232CF481E090E09E838D833FC06F81A9
:100B9000788589859A8520E03FEF4FE757E40E94EA
:100BA000F0C018164CF56B857C858D859E8520E000
:100BB00030E040E251E40E944ABFDC01CB01BC01BD
:100BC000CD010E9474BDDC01CB019E838D830FC0DB
:100BD00080E791E09C838B838B819C810197F1F767
:100BE0009C838B838D819E8101979E838D838D81D4
:100BF0009E81009769F714C06F81788589859A85F1
:100C00000E9474BDDC01CB019E838D838D819E810A
:100C10009A83898389819A810197F1F79A838983DD
:100C200088E20E94280681E00E94280686E00E9451
:100C300028068EE00E94280680E80E9428062E964C
:100C40000FB6F894DEBF0FBECDBFCF91DF910895F0
:100C5000DF93CF93CDB7DEB76E970FB6F894DEBFB4
:100C60000FBECDBF8E8F8E8D8D8F8D8D807F8D8FA2
:100C7000A8E2B0E0E8E2F0E080818F708C93A8E217
:100C8000B0E0E8E2F0E090818D8D892B8C93A8E2B2
:100C9000B0E0E8E2F0E080818E7F8C93A8E2B0E0E3
:100CA000E8E2F0E080818D7F8C93A8E2B0E0E8E29A
:100CB000F0E0808184608C9380E090E0A0EAB0E472
:100CC000898F9A8FAB8FBC8F698D7A8D8B8D9C8D20
:100CD00026E636E646E655E40E944ABFDC01CB0133
:100CE0008D8B9E8BAF8BB88F6D897E898F89988D08
:100CF00020E030E040E85FE30E9450C188232CF4FC
:100D000081E090E09C8B8B8B3FC06D897E898F89C1
:100D1000988D20E03FEF4FE757E40E94F0C018168F
:100D20004CF5698D7A8D8B8D9C8D20E030E040E212
:100D300051E40E944ABFDC01CB01BC01CD010E94FD
:100D400074BDDC01CB019C8B8B8B0FC080E791E0E5
:100D50009A8B898B89899A890197F1F79A8B898B6C
:100D60008B899C8901979C8B8B8B8B899C890097A5
:100D700069F714C06D897E898F89988D0E9474BD32
:100D8000DC01CB019C8B8B8B8B899C89988B8F870B
:100D90008F8598890197F1F7988B8F87A8E2B0E04B
:100DA000E8E2F0E080818B7F8C938E8D8F708E8F48
:100DB0008E8D8295807F8E8FA8E2B0E0E8E2F0E031
:100DC00080818F708C93A8E2B0E0E8E2F0E090813F
:100DD0008E8D892B8C93A8E2B0E0E8E2F0E0808170
:100DE0008E7F8C93A8E2B0E0E8E2F0E080818D7F16
:100DF0008C93A8E2B0E0E8E2F0E0808184608C931C
:100E000080E090E0A0EAB0E48B879C87AD87BE8746
:100E10006B857C858D859E8526E636E646E655E41F
:100E20000E944ABFDC01CB018F839887A987BA87CC
:100E30006F81788589859A8520E030E040E85FE31E
:100E40000E9450C188232CF481E090E09E838D8322
:100E50003FC06F81788589859A8520E03FEF4FE715
:100E600057E40E94F0C018164CF56B857C858D8583
:100E70009E8520E030E040E251E40E944ABFDC0160
:100E8000CB01BC01CD010E9474BDDC01CB019E836E
:100E90008D830FC080E791E09C838B838B819C8145
:100EA0000197F1F79C838B838D819E8101979E83AF
:100EB0008D838D819E81009769F714C06F8178853D
:100EC00089859A850E9474BDDC01CB019E838D8348
:100ED0008D819E819A83898389819A810197F1F717
:100EE0009A838983A8E2B0E0E8E2F0E080818B7F1A
:100EF0008C936E960FB6F894DEBF0FBECDBFCF9128
:100F0000DF910895DF93CF93CDB7DEB76E970FB61D
:100F1000F894DEBF0FBECDBF8E8F8E8D8D8F8D8DE1
:100F2000807F8D8FA8E2B0E0E8E2F0E080818F70F2
:100F30008C93A8E2B0E0E8E2F0E090818D8D892BFF
:100F40008C93A8E2B0E0E8E2F0E0808181608C93CD
:100F5000A8E2B0E0E8E2F0E080818D7F8C93A8E227
:100F6000B0E0E8E2F0E0808184608C9380E090E083
:100F7000A0EAB0E4898F9A8FAB8FBC8F698D7A8D90
:100F80008B8D9C8D26E636E646E655E40E944ABFE8
:100F9000DC01CB018D8B9E8BAF8BB88F6D897E89E9
:100FA0008F89988D20E030E040E85FE30E9450C1D7
:100FB00088232CF481E090E09C8B8B8B3FC06D8963
:100FC0007E898F89988D20E03FEF4FE757E40E949C
:100FD000F0C018164CF5698D7A8D8B8D9C8D20E0B4
:100FE00030E040E251E40E944ABFDC01CB01BC0189
:100FF000CD010E9474BDDC01CB019C8B8B8B0FC09B
:1010000080E791E09A8B898B89899A890197F1F71A
:101010009A8B898B8B899C8901979C8B8B8B8B8975
:101020009C89009769F714C06D897E898F89988D96
:101030000E9474BDDC01CB019C8B8B8B8B899C89BE
:10104000988B8F878F8598890197F1F7988B8F8779
:10105000A8E2B0E0E8E2F0E080818B7F8C938E8D97
:101060008F708E8F8E8D8295807F8E8FA8E2B0E0FC
:10107000E8E2F0E080818F708C93A8E2B0E0E8E2D3
:10108000F0E090818E8D892B8C93A8E2B0E0E8E2AD
:10109000F0E0808181608C93A8E2B0E0E8E2F0E0CB
:1010A00080818D7F8C93A8E2B0E0E8E2F0E080815F
:1010B00084608C9380E090E0A0EAB0E48B879C870A
:1010C000AD87BE876B857C858D859E8526E636E659
:1010D00046E655E40E944ABFDC01CB018F83988726
:1010E000A987BA876F81788589859A8520E030E065
:1010F00040E85FE30E9450C188232CF481E090E037
:101100009E838D833FC06F81788589859A8520E095
:101110003FEF4FE757E40E94F0C018164CF56B857F
:101120007C858D859E8520E030E040E251E40E9480
:101130004ABFDC01CB01BC01CD010E9474BDDC01C2
:10114000CB019E838D830FC080E791E09C838B83CE
:101150008B819C810197F1F79C838B838D819E818C
:1011600001979E838D838D819E81009769F714C0BE
:101170006F81788589859A850E9474BDDC01CB01D9
:101180009E838D838D819E819A83898389819A81B3
:101190000197F1F79A838983A8E2B0E0E8E2F0E0F2
:1011A00080818B7F8C936E960FB6F894DEBF0FBE56
:1011B000CDBFCF91DF910895DF93CF93CDB7DEB749
:1011C00080E80E942806CF91DF910895DF93CF93A6
:1011D0000F920F92CDB7DEB79A8389830AC0E98157
:1011E000FA8180810E94820789819A8101969A837F
:1011F0008983E981FA818081882389F70F900F9094
:10120000CF91DF910895DF93CF9300D00F92CDB7A8
:10121000DEB789836A838981282F30E03C832B8362
:101220008B819C8182309105D9F02B813C812330C8
:10123000310534F48B819C818130910561F01EC0B1
:101240002B813C812330310581F08B819C8184305E
:10125000910581F013C08A8181580E9428060EC032
:101260008A8181540E94280609C08A818D560E9475
:10127000280604C08A818D520E9428060F900F9084
:101280000F900F90CF91DF910895DF93CF93CDB75B
:10129000DEB727970FB6F894DEBF0FBECDBF8A83A7
:1012A0006B835D834C833F832E8319828A818823DD
:1012B00019F08B81882319F40E94DC0804C08A810C
:1012C0006B810E9403098E819F818530910519F001
:1012D00089818130A9F48C819D8120E137E2B901B7
:1012E0000E9442C4CB01C0969093250380932403AF
:1012F00080912403909125030E94820781E08983D5
:101300008E819F818430910519F08981813011F59A
:101310008C819D8128EE33E0B9010E9442C4CB014B
:1013200090932703809326038091260390912703AF
:101330002AE030E0B9010E9442C4C09690933A037B
:10134000809339038091390390913A030E94820778
:1013500081E089838E819F818330910519F0898195
:10136000813011F58C819D8124E630E0B9010E9425
:1013700042C4CB01909327038093260380912603D8
:10138000909127032AE030E0B9010E9442C4C09640
:101390009093360380933503809135039091360303
:1013A0000E94820781E089838E819F81823091052E
:1013B00019F08981813011F58C819D812AE030E01E
:1013C000B9010E9442C4CB01909327038093260366
:1013D00080912603909127032AE030E0B9010E9412
:1013E00042C4C096909334038093330380913303B7
:1013F000909134030E94820781E089838E819F81CE
:101400008130910519F08981813091F48C819D8121
:101410002AE030E0B9010E9442C4C096909338039C
:101420008093370380913703909138030E9482079D
:101430008E819F81863091051CF085E40E94820791
:1014400027960FB6F894DEBF0FBECDBFCF91DF91C8
:101450000895DF93CF93CDB7DEB7A7E2B0E0E7E220
:10146000F0E0808188608C93A8E2B0E0E8E2F0E0F0
:101470008081877F8C93CF91DF910895DF93CF9305
:10148000CDB7DEB7A7E2B0E0E7E2F0E08081876F9A
:101490008C93A8E2B0E0E8E2F0E0808180788C9361
:1014A000CF91DF910895DF93CF93CDB7DEB7AAE256
:1014B000B0E0EAE2F0E080818E6F8C93ABE2B0E0C6
:1014C000EBE2F0E0808181608C93CF91DF91089511
:1014D000DF93CF93CDB7DEB7A4E0B1E0E4E0F1E075
:1014E0008081826C8C93A5E0B1E0E5E0F1E0808141
:1014F000826C8C93CF91DF910895DF93CF93CDB71A
:10150000DEB7F894A9E6B0E0E9E6F0E08081826019
:101510008C93ADE3B0E0EDE3F0E0808181608C93EB
:101520007894CF91DF9108951F920F920FB60F928A
:1015300011248F939F93AF93BF93DF93CF93CDB736
:10154000DEB78091140390911503A0911603B0911A
:1015500017030196A11DB11D8093140390931503E9
:10156000A0931603B0931703CF91DF91BF91AF9172
:101570009F918F910F900FBE0F901F901895DF9342
:10158000CF93CDB7DEB7ABE2B0E0EBE2F0E0808125
:101590008F7B8C93ABE2B0E0EBE2F0E080818F7761
:1015A0008C93CF91DF910895DF93CF93CDB7DEB7C2
:1015B000ABE2B0E0EBE2F0E0808180648C93ABE2E0
:1015C000B0E0EBE2F0E0808180688C93CF91DF9116
:1015D0000895DF93CF93CDB7DEB7ABE2B0E0EBE297
:1015E000F0E080818F7B8C93ABE2B0E0EBE2F0E047
:1015F000808180688C93CF91DF910895DF93CF93A2
:10160000CDB7DEB7ABE2B0E0EBE2F0E08081806422
:101610008C93ABE2B0E0EBE2F0E080818F778C93CB
:10162000CF91DF910895DF93CF93CDB7DEB7ABE2D3
:10163000B0E0EBE2F0E0808180618C93ABE2B0E05F
:10164000EBE2F0E0808180628C93CF91DF9108958E
:10165000DF93CF93CDB7DEB7A5E0B1E0E5E0F1E0F1
:101660008081826C8C93A5E0B1E0E5E0F1E08081BF
:101670008D7F8C93CF91DF910895DF93CF93CDB77A
:10168000DEB7A5E0B1E0E5E0F1E08081826C8C930B
:10169000A5E0B1E0E5E0F1E080818F7B8C93CF9114
:1016A000DF910895DF93CF93CDB7DEB7A5E0B1E02A
:1016B000E5E0F1E08081826C8C93A5E0B1E0E5E0AB
:1016C000F1E080818F778C93CF91DF910895DF9344
:1016D000CF93CDB7DEB7A5E0B1E0E5E0F1E08081E2
:1016E000826C8C93A5E0B1E0E5E0F1E080818C9321
:1016F000CF91DF910895DF93CF93CDB7DEB7E0E3CD
:10170000F0E01082E1E3F0E01082E7E0F1E0108227
:10171000E8E0F1E01082CF91DF910895DF93CF935D
:10172000CDB7DEB7EAE7F0E01082EBE7F0E0108239
:10173000ECE7F0E080E28083E0E5F0E080E88083A1
:10174000EAE7F0E086E88083CF91DF910895DF93A8
:10175000CF930F920F92CDB7DEB78A838A818830FC
:1017600020F0EBE7F0E088E080838A8187708A834D
:10177000ECE7F0E08A8180628083AAE7B0E0EAE7E4
:10178000F0E0808180648C93EAE7F0E08081882F2C
:1017900090E0807190700097B9F3E9E7F0E0808104
:1017A0008983AAE7B0E0EAE7F0E0808180618C936A
:1017B000EBE7F0E0108289810F900F90CF91DF91DD
:1017C0000895DF93CF9300D0CDB7DEB789836A83C6
:1017D0004B838B810E94A70B809330038091300351
:1017E000282F30E089816A81A90123E030E00E943E
:1017F00045090F900F900F90CF91DF910895DF93DF
:10180000CF930F920F92CDB7DEB789836A83E8E258
:10181000F1E089818083EAE2F1E08A8180830F90A0
:101820000F90CF91DF910895DF93CF93CDB7DEB7BF
:10183000A4E2B0E0E4E2F0E0808180628C93A5E273
:10184000B0E0E5E2F0E0808180628C93CF91DF919F
:101850000895DF93CF93CDB7DEB7A4E2B0E0E4E222
:10186000F0E0808180648C93A5E2B0E0E5E2F0E0F6
:10187000808180648C93CF91DF910895DF93CF9323
:10188000CDB7DEB7A4E2B0E0E4E2F0E080818068AA
:101890008C93A5E2B0E0E5E2F0E0808180688C9373
:1018A000CF91DF910895DF93CF93CDB7DEB7E1E815
:1018B000F0E01082E5E8F0E08CEF8083E4E8F0E00F
:1018C00081E08083E9E8F0E083E08083E8E8F0E00D
:1018D0008FEF8083EBE8F0E083E08083EAE8F0E0DC
:1018E0008FEF8083EDE8F0E083E08083ECE8F0E0C8
:1018F0008FEF8083E7E8F0E083E08083E6E8F0E0C4
:101900008FEF8083E0E8F0E08BEA8083E2E8F0E0AC
:101910001082E1E8F0E08CE08083CF91DF910895C0
:10192000DF93CF93CDB7DEB7E1E2F1E01082E5E2DD
:10193000F1E08FEF8083E4E2F1E081E08083E9E28F
:10194000F1E01082E8E2F1E08FEF8083EBE2F1E07A
:101950001082EAE2F1E08FEF8083EDE2F1E01082A5
:10196000ECE2F1E08FEF8083E0E2F1E089EA80834E
:10197000E1E2F1E08BE08083CF91DF9108950F9356
:101980001F93DF93CF9300D00F920F92CDB7DEB7A6
:101990008D8380E090E0A0E0B0E089839A83AB8300
:1019A000BC838D81882F90E0A0E0B0E0BC01CD0128
:1019B0000E94D4C1DC01CB01BC01CD012BE734E195
:1019C0004EEE5FE30E9444C0DC01CB01BC01CD01BF
:1019D00020E030E04CE052E40E941DBFDC01CB016E
:1019E00089839A83AB83BC83E9E8F0E0108208E83E
:1019F00010E069817A818B819C810E9474BDDC0139
:101A0000CB01F80180830F900F900F900F900F90F3
:101A1000CF91DF911F910F9108950F931F93DF9343
:101A2000CF9300D00F920F92CDB7DEB78D8380E0B9
:101A300090E0A0E0B0E089839A83AB83BC838D8182
:101A4000882F90E0A0E0B0E0BC01CD010E94D4C19D
:101A5000DC01CB01BC01CD012BE734E14EEE5FE3AD
:101A60000E9444C0DC01CB01BC01CD0120E030E08C
:101A70004CE052E40E941DBFDC01CB0189839A83B4
:101A8000AB83BC83EBE8F0E010820AE810E06981E8
:101A90007A818B819C810E9474BDDC01CB01F801AD
:101AA00080830F900F900F900F900F90CF91DF9148
:101AB0001F910F9108950F931F93DF93CF9300D041
:101AC0000F920F92CDB7DEB78D8380E090E0A0E05B
:101AD000B0E089839A83AB83BC838D81882F90E0AB
:101AE000A0E0B0E0BC01CD010E94D4C1DC01CB017B
:101AF000BC01CD012BE734E14EEE5FE30E9444C010
:101B0000DC01CB01BC01CD0120E030E04CE052E42F
:101B10000E941DBFDC01CB0189839A83AB83BC8308
:101B2000EDE8F0E010820CE810E069817A818B81A9
:101B30009C810E9474BDDC01CB01F80180830F9071
:101B40000F900F900F900F90CF91DF911F910F91F9
:101B50000895DF93CF93CDB7DEB7E9E8F0E083E0F7
:101B60008083E8E8F0E08FEF8083CF91DF910895E4
:101B7000DF93CF93CDB7DEB7EBE8F0E083E080836F
:101B8000EAE8F0E08FEF8083CF91DF910895DF9353
:101B9000CF93CDB7DEB7EDE8F0E083E08083ECE8EB
:101BA000F0E08FEF8083CF91DF910895DF93CF93A3
:101BB000CDB7DEB7A1E2B0E0E1E2F0E080818F6076
:101BC0008C93A2E2B0E0E2E2F0E08081807F8C932F
:101BD000AAE0B1E0EAE0F1E0808188618C93ABE0BB
:101BE000B1E0EBE0F1E0808188618C93CF91DF91EF
:101BF0000895DF93CF93CDB7DEB7ADE2B0E0EDE26D
:101C0000F0E080818F7E8C93AEE2B0E0EEE2F0E017
:101C1000808180618C93CF91DF910895DF93CF9382
:101C2000CDB7DEB7ADE2B0E0EDE2F0E080818F7DD0
:101C30008C93AEE2B0E0EEE2F0E0808180628C93C3
:101C4000CF91DF910895DF93CF93CDB7DEB70E9498
:101C50003E0A0E94530A0E94680A0E94290A0E94B2
:101C60007B0B0E94D60D0E94140C0E94290C0E942E
:101C70003E0C0E94F90D0E940E0ECF91DF91089547
:101C8000DF93CF93CDB7DEB7F894AAE6B0E0EAE6EB
:101C9000F0E0808182608C93ADE3B0E0EDE3F0E0B2
:101CA000808180618C937894CF91DF910895DF9348
:101CB000CF93CDB7DEB7F894AAE6B0E0EAE6F0E05D
:101CC000808188608C93ADE3B0E0EDE3F0E080814B
:101CD00080628C937894CF91DF9108951F920F9238
:101CE0000FB60F9211248F939F93AF93BF93DF93FF
:101CF000CF93CDB7DEB78091100390911103A091DF
:101D00001203B09113030196A11DB11D809310031E
:101D100090931103A0931203B0931303CF91DF911B
:101D2000BF91AF919F918F910F900FBE0F901F9019
:101D300018951F920F920FB60F9211248F939F93B5
:101D4000AF93BF93DF93CF93CDB7DEB780910C03F2
:101D500090910D03A0910E03B0910F030196A11D68
:101D6000B11D80930C0390930D03A0930E03B093C9
:101D70000F03CF91DF91BF91AF919F918F910F9002
:101D80000FBE0F901F901895DF93CF930F920F9275
:101D9000CDB7DEB78A8319828A818F708A83E2E2A7
:101DA000F0E0808189838981807F898399818A811C
:101DB000892B8983E2E2F0E0898180830F900F9084
:101DC000CF91DF910895DF93CF93CDB7DEB786E053
:101DD0000E94C40ECF91DF910895DF93CF93CDB7CA
:101DE000DEB789E00E94C40ECF91DF910895DF93A2
:101DF000CF93CDB7DEB785E00E94C40ECF91DF91BF
:101E00000895DF93CF93CDB7DEB78AE00E94C40E6A
:101E1000CF91DF910895DF93CF93CDB7DEB784E004
:101E20000E94C40ECF91DF910895DF93CF93CDB779
:101E3000DEB782E00E94C40ECF91DF910895DF9358
:101E4000CF93CDB7DEB781E00E94C40ECF91DF9172
:101E50000895DF93CF93CDB7DEB788E00E94C40E1C
:101E6000CF91DF910895DF93CF93CDB7DEB780E0B8
:101E70000E94C40ECF91DF910895DF93CF93CDB729
:101E8000DEB72C970FB6F894DEBF0FBECDBF9A8792
:101E9000898780E090E0A0E0B0E08D839E83AF83EF
:101EA000B88719821A821B821C8289859A85CC0187
:101EB000A0E0B0E0BC01CD010E94D4C1DC01CB01A7
:101EC000BC01CD0128E431EE42E850E40E9444C058
:101ED000DC01CB018D839E83AF83B8876D817E81CA
:101EE0008F8198850E9474BDDC01CB01CC01A0E0FC
:101EF000B0E089839A83AB83BC8310921003109265
:101F00001103109212031092130310920C031092FB
:101F10000D0310920E0310920F03209110033091C5
:101F2000110340911203509113031C8689819A81F9
:101F3000AB81BC81281739074A075B0710F081E0A5
:101F40008C8720910C0330910D0340910E0350912A
:101F50000F031B8689819A81AB81BC8128173907C1
:101F60004A075B0710F091E09B878C859B85892B46
:101F7000882399F20E94330F2C960FB6F894DEBF97
:101F80000FBECDBFCF91DF910895DF93CF93CDB733
:101F9000DEB72A970FB6F894DEBF0FBECDBF9A8783
:101FA000898780E090E0A0E0B0E08D839E83AF83DE
:101FB000B88719821A821B821C8289859A85CC0176
:101FC000A0E0B0E0BC01CD010E94D4C1DC01CB0196
:101FD000BC01CD0125EE30ED4AEA50E40E9444C038
:101FE000DC01CB018D839E83AF83B8876D817E81B9
:101FF0008F8198850E9474BDDC01CB0189839A830F
:10200000AB83BC8310921003109211031092120341
:102010001092130320911003309111034091120389
:102020005091130389819A81AB81BC8182179307F8
:10203000A407B50778F70E94330F2A960FB6F894D5
:10204000DEBF0FBECDBFCF91DF910895DF93CF9359
:102050000F920F92CDB7DEB79A8389830E94E30E69
:1020600089819A810E94C50F0F900F90CF91DF91C7
:102070000895DF93CF930F920F92CDB7DEB79A8377
:1020800089830E94ED0E89819A810E94C50F0F906D
:102090000F90CF91DF910895DF93CF930F920F921E
:1020A000CDB7DEB79A8389830E94F70E89819A8122
:1020B0000E943D0F0F900F90CF91DF910895DF9315
:1020C000CF930F920F92CDB7DEB79A8389830E9488
:1020D000010F89819A810E943D0F0F900F90CF913F
:1020E000DF910895DF93CF930F920F92CDB7DEB7B4
:1020F0009A8389830E940B0F89819A81880F991F87
:102100009A83898389819A810E943D0F0F900F9055
:10211000CF91DF910895DF93CF930F920F92CDB7B8
:10212000DEB79A8389830E94150F89819A81880F6F
:10213000991F9A83898389819A810E943D0F0F900C
:102140000F90CF91DF910895DF93CF930F920F926D
:10215000CDB7DEB79A8389830E941F0F89819A8148
:10216000880F991F9A83898389819A810E943D0FE4
:102170000F900F90CF91DF910895DF93CF930F923F
:102180000F92CDB7DEB79A8389830E94290F898188
:102190009A81880F991F9A83898389819A810E94E5
:1021A0003D0F0F900F90CF91DF910895DF93CF9364
:1021B0000F92CDB7DEB71982E6E2F0E08081898325
:1021C000898188608983E8E2F0E0898180830F90CB
:1021D000CF91DF910895DF93CF930F92CDB7DEB704
:1021E0001982E6E2F0E0808189838981877F898393
:1021F000E8E2F0E0898180830F90CF91DF9108952C
:10220000DF93CF93CDB7DEB72E970FB6F894DEBF2E
:102210000FBECDBF0E94BF0A109214031092150387
:10222000109216031092170380E090E0A8ECB2E43D
:102230008B879C87AD87BE876B857C858D859E85CA
:1022400026E636E646E655E40E944ABFDC01CB01AD
:102250008F839887A987BA876F81788589859A85C2
:1022600020E030E040E85FE30E9450C188232CF476
:1022700081E090E09E838D833FC06F817885898562
:102280009A8520E03FEF4FE757E40E94F0C0181610
:102290004CF56B857C858D859E8520E030E040E2A5
:1022A00051E40E944ABFDC01CB01BC01CD010E9478
:1022B00074BDDC01CB019E838D830FC080E791E06C
:1022C0009C838B838B819C810197F1F79C838B830B
:1022D0008D819E8101979E838D838D819E81009744
:1022E00069F714C06F81788589859A850E9474BDCD
:1022F000DC01CB019E838D838D819E819A838983AE
:1023000089819A810197F1F79A83898380911403D7
:1023100090911503A0911603B091170380932C039D
:1023200090932D03A0932E03B0932F032E960FB6F8
:10233000F894DEBF0FBECDBFCF91DF910895DF933C
:10234000CF93CDB7DEB72E970FB6F894DEBF0FBE92
:10235000CDBF0E94D40A109214031092150310925C
:1023600016031092170380E090E0A8ECB2E48B878C
:102370009C87AD87BE876B857C858D859E8526E68F
:1023800036E646E655E40E944ABFDC01CB018F8366
:102390009887A987BA876F81788589859A8520E093
:1023A00030E040E85FE30E9450C188232CF481E0D4
:1023B00090E09E838D833FC06F81788589859A8563
:1023C00020E03FEF4FE757E40E94F0C018164CF5AD
:1023D0006B857C858D859E8520E030E040E251E470
:1023E0000E944ABFDC01CB01BC01CD010E9474BD3B
:1023F000DC01CB019E838D830FC080E791E09C833D
:102400008B838B819C810197F1F79C838B838D81DA
:102410009E8101979E838D838D819E81009769F7B0
:1024200014C06F81788589859A850E9474BDDC010E
:10243000CB019E838D838D819E819A83898389813F
:102440009A810197F1F79A8389838091140390917F
:102450001503A0911603B09117038093280390935E
:102460002903A0932A03B0932B032E960FB6F8945A
:10247000DEBF0FBECDBFCF91DF910895DF93CF9325
:10248000CDB7DEB72E970FB6F894DEBF0FBECDBF27
:102490000E94E90A10921403109215031092160379
:1024A0001092170380E090E0A8ECB2E48B879C8741
:1024B000AD87BE876B857C858D859E8526E636E655
:1024C00046E655E40E944ABFDC01CB018F83988722
:1024D000A987BA876F81788589859A8520E030E061
:1024E00040E85FE30E9450C188232CF481E090E033
:1024F0009E838D833FC06F81788589859A8520E092
:102500003FEF4FE757E40E94F0C018164CF56B857B
:102510007C858D859E8520E030E040E251E40E947C
:102520004ABFDC01CB01BC01CD010E9474BDDC01BE
:10253000CB019E838D830FC080E791E09C838B83CA
:102540008B819C810197F1F79C838B838D819E8188
:1025500001979E838D838D819E81009769F714C0BA
:102560006F81788589859A850E9474BDDC01CB01D5
:102570009E838D838D819E819A83898389819A81AF
:102580000197F1F79A838983809114039091150341
:10259000A0911603B091170380931E0390931F031D
:1025A000A0932003B09321032E960FB6F894DEBFBC
:1025B0000FBECDBFCF91DF910895DF93CF93CDB7FD
:1025C000DEB7E9970FB6F894DEBF0FBECDBF19AEE8
:1025D00019AE89AD8A3508F0CEC189AD0E94BF0C15
:1025E00080E090E0AAE7B3E48DAB9EABAFABB8AFB1
:1025F0006DA97EA98FA998AD26E636E646E655E494
:102600000E944ABFDC01CB0189AB9AABABABBCAB40
:1026100069A97AA98BA99CA920E030E040E85FE392
:102620000E9450C188232CF481E090E098AB8FA7E2
:102630003FC069A97AA98BA99CA920E03FEF4FE789
:1026400057E40E94F0C018164CF56DA97EA98FA919
:1026500098AD20E030E040E251E40E944ABFDC0146
:10266000CB01BC01CD010E9474BDDC01CB0198AB54
:102670008FA70FC080E791E09EA78DA78DA59EA58F
:102680000197F1F79EA78DA78FA598A9019798AB01
:102690008FA78FA598A9009769F714C069A97AA98F
:1026A0008BA99CA90E9474BDDC01CB0198AB8FA7BC
:1026B0008FA598A99CA78BA78BA59CA50197F1F73F
:1026C0009CA78BA780E090E0AAE7B3E48FA398A72C
:1026D000A9A7BAA76FA178A589A59AA526E636E687
:1026E00046E655E40E944ABFDC01CB018BA39CA3C4
:1026F000ADA3BEA36BA17CA18DA19EA120E030E083
:1027000040E85FE30E9450C188232CF481E090E010
:102710009AA389A33FC06BA17CA18DA19EA120E0BB
:102720003FEF4FE757E40E94F0C018164CF56FA139
:1027300078A589A59AA520E030E040E251E40E9406
:102740004ABFDC01CB01BC01CD010E9474BDDC019C
:10275000CB019AA389A30FC080E791E098A38F8F44
:102760008F8D98A10197F1F798A38F8F89A19AA1D6
:1027700001979AA389A389A19AA1009769F714C028
:102780006BA17CA18DA19EA10E9474BDDC01CB0137
:102790009AA389A389A19AA19E8F8D8F8D8D9E8DDD
:1027A0000197F1F79E8F8D8F80E090E0AAE7B3E468
:1027B000898F9A8FAB8FBC8F698D7A8D8B8D9C8D15
:1027C00026E636E646E655E40E944ABFDC01CB0128
:1027D0008D8B9E8BAF8BB88F6D897E898F89988DFD
:1027E00020E030E040E85FE30E9450C188232CF4F1
:1027F00081E090E09C8B8B8B3FC06D897E898F89B7
:10280000988D20E03FEF4FE757E40E94F0C0181684
:102810004CF5698D7A8D8B8D9C8D20E030E040E207
:1028200051E40E944ABFDC01CB01BC01CD010E94F2
:1028300074BDDC01CB019C8B8B8B0FC080E791E0DA
:102840009A8B898B89899A890197F1F79A8B898B61
:102850008B899C8901979C8B8B8B8B899C8900979A
:1028600069F714C06D897E898F89988D0E9474BD27
:10287000DC01CB019C8B8B8B8B899C89988B8F8700
:102880008F8598890197F1F7988B8F8789AD0E9482
:102890000D0D80E090E0AAE7B3E48B879C87AD87BD
:1028A000BE876B857C858D859E8526E636E646E669
:1028B00055E40E944ABFDC01CB018F839887A9872A
:1028C000BA876F81788589859A8520E030E040E875
:1028D0005FE30E9450C188232CF481E090E09E8346
:1028E0008D833FC06F81788589859A8520E03FEF91
:1028F0004FE757E40E94F0C018164CF56B857C85B5
:102900008D859E8520E030E040E251E40E944ABF80
:10291000DC01CB01BC01CD010E9474BDDC01CB0107
:102920009E838D830FC080E791E09C838B838B8196
:102930009C810197F1F79C838B838D819E81019708
:102940009E838D838D819E81009769F714C06F816E
:10295000788589859A850E9474BDDC01CB019E83B0
:102960008D838D819E819A83898389819A81019744
:10297000F1F79A838983E9960FB6F894DEBF0FBE0C
:10298000CDBFCF91DF910895DF93CF93CDB7DEB761
:10299000AB970FB6F894DEBF0FBECDBF1BA680E08D
:1029A00090E0AAE7B3E48FA398A7A9A7BAA76FA15D
:1029B00078A589A59AA526E636E646E655E40E945E
:1029C0004ABFDC01CB018BA39CA3ADA3BEA36BA12B
:1029D0007CA18DA19EA120E030E040E85FE30E9451
:1029E00050C188232CF481E090E09AA389A33FC0D2
:1029F0006BA17CA18DA19EA120E03FEF4FE757E4A2
:102A00000E94F0C018164CF56FA178A589A59AA56B
:102A100020E030E040E251E40E944ABFDC01CB01FB
:102A2000BC01CD010E9474BDDC01CB019AA389A336
:102A30000FC080E791E098A38F8F8F8D98A10197A9
:102A4000F1F798A38F8F89A19AA101979AA389A3DF
:102A500089A19AA1009769F714C06BA17CA18DA1EF
:102A60009EA10E9474BDDC01CB019AA389A389A118
:102A70009AA19E8F8D8F8D8D9E8D0197F1F79E8FE0
:102A80008D8F8AE58BA78BA5882319F08BA50E94D3
:102A9000BF0C8AEA8BA78BA5882319F08BA50E940F
:102AA0000D0D0E94670B80E090E0AAE7B3E4898FE8
:102AB0009A8FAB8FBC8F698D7A8D8B8D9C8D26E61E
:102AC00036E646E655E40E944ABFDC01CB018D8B19
:102AD0009E8BAF8BB88F6D897E898F89988D20E012
:102AE00030E040E85FE30E9450C188232CF481E08D
:102AF00090E09C8B8B8B3FC06D897E898F89988DF0
:102B000020E03FEF4FE757E40E94F0C018164CF565
:102B1000698D7A8D8B8D9C8D20E030E040E251E410
:102B20000E944ABFDC01CB01BC01CD010E9474BDF3
:102B3000DC01CB019C8B8B8B0FC080E791E09A8BE3
:102B4000898B89899A890197F1F79A8B898B8B896F
:102B50009C8901979C8B8B8B8B899C89009769F74B
:102B600014C06D897E898F89988D0E9474BDDC01A7
:102B7000CB019C8B8B8B8B899C89988B8F878F85C6
:102B800098890197F1F7988B8F8780E090E0AAE70A
:102B9000B3E48B879C87AD87BE876B857C858D85ED
:102BA0009E8526E636E646E655E40E944ABFDC01ED
:102BB000CB018F839887A987BA876F8178858985AC
:102BC0009A8520E030E040E85FE30E9450C188230E
:102BD0002CF481E090E09E838D833FC06F817885E7
:102BE00089859A8520E03FEF4FE757E40E94F0C0C7
:102BF00018164CF56B857C858D859E8520E030E030
:102C000040E251E40E944ABFDC01CB01BC01CD018E
:102C10000E9474BDDC01CB019E838D830FC080E7D1
:102C200091E09C838B838B819C810197F1F79C833E
:102C30008B838D819E8101979E838D838D819E8163
:102C4000009769F714C06F81788589859A850E94FD
:102C500074BDDC01CB019E838D838D819E819A831F
:102C6000898389819A810197F1F79A838983AB9649
:102C70000FB6F894DEBF0FBECDBFCF91DF910895A0
:102C80000F931F93DF93CF93CDB7DEB7C45CD040D3
:102C90000FB6F894DEBF0FBECDBF0E940011FE013B
:102CA000EF53FF4F80E090E0A8E4B3E4808391838A
:102CB000A283B3838E0103541F4FFE01EF53FF4FD6
:102CC000608171818281938126E636E646E655E48D
:102CD0000E944ABFDC01CB01F80180839183A2836B
:102CE000B383FE01E354FF4F608171818281938140
:102CF00020E030E040E85FE30E9450C1882344F4C4
:102D0000FE01E554FF4F81E090E09183808364C031
:102D1000FE01E354FF4F608171818281938120E045
:102D20003FEF4FE757E40E94F0C018160CF043C085
:102D3000FE01EF53FF4F608171818281938120E01A
:102D400030E040E251E40E944ABFDC01CB018E0139
:102D500005541F4FBC01CD010E9474BDDC01CB01A5
:102D6000F801918380831FC0FE01E754FF4F80E785
:102D700091E091838083FE01E754FF4F8081918130
:102D80000197F1F7FE01E754FF4F91838083DE0145
:102D9000A554BF4FFE01E554FF4F808191810197FB
:102DA00011969C938E93FE01E554FF4F8081918193
:102DB0000097D1F627C08E0105541F4FFE01E35442
:102DC000FF4F60817181828193810E9474BDDC011B
:102DD000CB01F80191838083DE01A954BF4FFE012E
:102DE000E554FF4F808191818D939C93FE01E954BE
:102DF000FF4F808191810197F1F7FE01E954FF4F68
:102E0000918380830E949F11FE01ED54FF4F80E06B
:102E100090E0A8E4B3E480839183A283B3838E011E
:102E200001551F4FFE01ED54FF4F6081718182817A
:102E3000938126E636E646E655E40E944ABFDC0169
:102E4000CB01F80180839183A283B383FE01E15516
:102E5000FF4F608171818281938120E030E040E802
:102E60005FE30E9450C1882344F4FE01E355FF4F05
:102E700081E090E09183808364C0FE01E155FF4FC3
:102E8000608171818281938120E03FEF4FE757E4B9
:102E90000E94F0C018160CF043C0FE01ED54FF4F25
:102EA000608171818281938120E030E040E251E4D1
:102EB0000E944ABFDC01CB018E0103551F4FBC01AC
:102EC000CD010E9474BDDC01CB01F80191838083A8
:102ED0001FC0FE01E555FF4F80E791E0918380839D
:102EE000FE01E555FF4F808191810197F1F7FE01C9
:102EF000E555FF4F91838083DE01A355BF4FFE014F
:102F0000E355FF4F80819181019711969C938E9399
:102F1000FE01E355FF4F808191810097D1F627C0D4
:102F20008E0103551F4FFE01E155FF4F60817181F6
:102F3000828193810E9474BDDC01CB01F8019183F1
:102F40008083DE01A755BF4FFE01E355FF4F80810F
:102F500091818D939C93FE01E755FF4F8081918174
:102F60000197F1F7FE01E755FF4F918380830E949F
:102F70003E12FE01EB55FF4F80E090E0A8E4B3E481
:102F800080839183A283B3838E010F551F4FFE016F
:102F9000EB55FF4F608171818281938126E636E691
:102FA00046E655E40E944ABFDC01CB01F80180836C
:102FB0009183A283B383FE01EF55FF4F608171813E
:102FC0008281938120E030E040E85FE30E9450C1BD
:102FD000882344F4FE01E156FF4F81E090E09183A5
:102FE000808364C0FE01EF55FF4F60817181828153
:102FF000938120E03FEF4FE757E40E94F0C018169E
:103000000CF043C0FE01EB55FF4F6081718182815E
:10301000938120E030E040E251E40E944ABFDC01AD
:10302000CB018E0101561F4FBC01CD010E9474BD22
:10303000DC01CB01F801918380831FC0FE01E356C0
:10304000FF4F80E791E091838083FE01E356FF4FBD
:10305000808191810197F1F7FE01E356FF4F918343
:103060008083DE01A156BF4FFE01E156FF4F8081F4
:103070009181019711969C938E93FE01E156FF4F2B
:10308000808191810097D1F627C08E0101561F4F94
:10309000FE01EF55FF4F60817181828193810E9413
:1030A00074BDDC01CB01F80191838083DE01A5565C
:1030B000BF4FFE01E156FF4F808191818D939C931C
:1030C000FE01E556FF4F808191810197F1F7FE01E6
:1030D000E556FF4F9183808380912C0390912D03BF
:1030E000A0912E03B0912F03843CF9E09F07F0E0FC
:1030F000AF07F0E0BF0708F0A7C380911E039091CF
:103100001F03A0912003B0912103803D27E0920787
:1031100020E0A20720E0B20708F096C380912803C0
:1031200090912903A0912A03B0912B03803DE7E001
:103130009E07E0E0AE07E0E0BE0708F085C3FE01B1
:10314000E956FF4F80E090E0A8E4B3E480839183E8
:10315000A283B3838E010D561F4FFE01E956FF4F28
:10316000608171818281938126E636E646E655E4E8
:103170000E944ABFDC01CB01F80180839183A283C6
:10318000B383FE01ED56FF4F60817181828193818F
:1031900020E030E040E85FE30E9450C1882344F41F
:1031A000FE01EF56FF4F81E090E09183808364C081
:1031B000FE01ED56FF4F608171818281938120E095
:1031C0003FEF4FE757E40E94F0C018160CF043C0E1
:1031D000FE01E956FF4F608171818281938120E079
:1031E00030E040E251E40E944ABFDC01CB018E0195
:1031F0000F561F4FBC01CD010E9474BDDC01CB01F5
:10320000F801918380831FC0FE01E157FF4F80E7E3
:1032100091E091838083FE01E157FF4F808191818E
:103220000197F1F7FE01E157FF4F91838083DE01A3
:10323000AF56BF4FFE01EF56FF4F8081918101973E
:1032400011969C938E93FE01EF56FF4F80819181E2
:103250000097D1F627C08E010F561F4FFE01ED5685
:10326000FF4F60817181828193810E9474BDDC0176
:10327000CB01F80191838083DE01A357BF4FFE018C
:10328000EF56FF4F808191818D939C93FE01E35710
:10329000FF4F808191810197F1F7FE01E357FF4FC6
:1032A00091838083FE01E757FF4F80E090E0A8E420
:1032B000B3E480839183A283B3838E010B571F4FA6
:1032C000FE01E757FF4F608171818281938126E67D
:1032D00036E646E655E40E944ABFDC01CB01F80120
:1032E00080839183A283B383FE01EB57FF4F6081FC
:1032F00071818281938120E030E040E85FE30E94A9
:1033000050C1882344F4FE01ED57FF4F81E090E067
:103310009183808364C0FE01EB57FF4F6081718110
:103320008281938120E03FEF4FE757E40E94F0C095
:1033300018160CF043C0FE01E757FF4F6081718102
:103340008281938120E030E040E251E40E944ABF54
:10335000DC01CB018E010D571F4FBC01CD010E9436
:1033600074BDDC01CB01F801918380831FC0FE0195
:10337000EF57FF4F80E791E091838083FE01EF5785
:10338000FF4F808191810197F1F7FE01EF57FF4FC9
:1033900091838083DE01AD57BF4FFE01ED57FF4F94
:1033A00080819181019711969C938E93FE01ED5738
:1033B000FF4F808191810097D1F627C08E010D5774
:1033C0001F4FFE01EB57FF4F608171818281938116
:1033D0000E9474BDDC01CB01F80191838083DE0182
:1033E000A158BF4FFE01ED57FF4F808191818D9312
:1033F0009C93FE01E158FF4F808191810197F1F785
:10340000FE01E158FF4F918380830E94D610FE0198
:10341000E558FF4F80E090E0AAE7B3E48083918312
:10342000A283B3838E0109581F4FFE01E558FF4F59
:10343000608171818281938126E636E646E655E415
:103440000E944ABFDC01CB01F80180839183A283F3
:10345000B383FE01E958FF4F6081718182819381BE
:1034600020E030E040E85FE30E9450C1882344F44C
:10347000FE01EB58FF4F81E090E09183808364C0B0
:10348000FE01E958FF4F608171818281938120E0C4
:103490003FEF4FE757E40E94F0C018160CF043C00E
:1034A000FE01E558FF4F608171818281938120E0A8
:1034B00030E040E251E40E944ABFDC01CB018E01C2
:1034C0000B581F4FBC01CD010E9474BDDC01CB0124
:1034D000F801918380831FC0FE01ED58FF4F80E704
:1034E00091E091838083FE01ED58FF4F80819181AF
:1034F0000197F1F7FE01ED58FF4F91838083DE01C4
:10350000AB58BF4FFE01EB58FF4F8081918101976F
:1035100011969C938E93FE01EB58FF4F8081918111
:103520000097D1F627C08E010B581F4FFE01E958B6
:10353000FF4F60817181828193810E9474BDDC01A3
:10354000CB01F80191838083DE01AF58BF4FFE01AC
:10355000EB58FF4F808191818D939C93FE01EF5832
:10356000FF4F808191810197F1F7FE01EF58FF4FE6
:1035700091838083FE01E359FF4F80E090E0AAE74A
:10358000B3E480839183A283B3838E0107591F4FD5
:10359000FE01E359FF4F608171818281938126E6AC
:1035A00036E646E655E40E944ABFDC01CB01F8014D
:1035B00080839183A283B383FE01E759FF4F60812B
:1035C00071818281938120E030E040E85FE30E94D6
:1035D00050C1882344F4FE01E959FF4F81E090E097
:1035E0009183808364C0FE01E759FF4F6081718140
:1035F0008281938120E03FEF4FE757E40E94F0C0C3
:1036000018160CF043C0FE01E359FF4F6081718131
:103610008281938120E030E040E251E40E944ABF81
:10362000DC01CB018E0109591F4FBC01CD010E9465
:1036300074BDDC01CB01F801918380831FC0FE01C2
:10364000EB59FF4F80E791E091838083FE01EB59B6
:10365000FF4F808191810197F1F7FE01EB59FF4FF8
:1036600091838083DE01A959BF4FFE01E959FF4FC5
:1036700080819181019711969C938E93FE01E95967
:10368000FF4F808191810097D1F627C08E010959A3
:103690001F4FFE01E759FF4F608171818281938145
:1036A0000E9474BDDC01CB01F80191838083DE01AF
:1036B000AD59BF4FFE01E959FF4F808191818D9334
:1036C0009C93FE01ED59FF4F808191810197F1F7A5
:1036D000FE01ED59FF4F918380830E94EB10FE01A4
:1036E000E15AFF4F80E090E0AAE7B3E48083918342
:1036F000A283B3838E01055A1F4FFE01E15AFF4F8B
:10370000608171818281938126E636E646E655E442
:103710000E944ABFDC01CB01F80180839183A28320
:10372000B383FE01E55AFF4F6081718182819381ED
:1037300020E030E040E85FE30E9450C1882344F479
:10374000FE01E75AFF4F81E090E09183808364C0DF
:10375000FE01E55AFF4F608171818281938120E0F3
:103760003FEF4FE757E40E94F0C018160CF043C03B
:10377000FE01E15AFF4F608171818281938120E0D7
:1037800030E040E251E40E944ABFDC01CB018E01EF
:10379000075A1F4FBC01CD010E9474BDDC01CB0153
:1037A000F801918380831FC0FE01E95AFF4F80E733
:1037B00091E091838083FE01E95AFF4F80819181DE
:1037C0000197F1F7FE01E95AFF4F91838083DE01F3
:1037D000A75ABF4FFE01E75AFF4F808191810197A1
:1037E00011969C938E93FE01E75AFF4F8081918141
:1037F0000097D1F6EDC38E01075A1F4FFE01E55A1F
:10380000FF4F60817181828193810E9474BDDC01D0
:10381000CB01F80191838083DE01AB5ABF4FFE01DB
:10382000E75AFF4F8081918111969C938E93FE0100
:10383000EB5AFF4F808191810197F1F7FE01EB5A1E
:10384000FF4F91838083C4C320912C0330912D03BB
:1038500040912E0350912F0380911E0390911F03DE
:10386000A0912003B091210382179307A407B50705
:1038700008F064C120912C0330912D0340912E0358
:1038800050912F038091280390912903A0912A033E
:10389000B0912B0382179307A407B50708F04EC118
:1038A00080911803909119030196909319038093C6
:1038B0001803FE01EF5AFF4F80E090E0AAE7B3E45F
:1038C00080839183A283B3838E01035B1F4FFE012C
:1038D000EF5AFF4F608171818281938126E636E63F
:1038E00046E655E40E944ABFDC01CB01F801808323
:1038F0009183A283B383FE01E35BFF4F60817181FB
:103900008281938120E030E040E85FE30E9450C173
:10391000882344F4FE01E55BFF4F81E090E0918352
:10392000808364C0FE01E35BFF4F6081718182810F
:10393000938120E03FEF4FE757E40E94F0C0181654
:103940000CF043C0FE01EF5AFF4F6081718182810C
:10395000938120E030E040E251E40E944ABFDC0164
:10396000CB018E01055B1F4FBC01CD010E9474BDD0
:10397000DC01CB01F801918380831FC0FE01E75B6E
:10398000FF4F80E791E091838083FE01E75BFF4F6B
:10399000808191810197F1F7FE01E75BFF4F9183F1
:1039A0008083DE01A55BBF4FFE01E55BFF4F808199
:1039B0009181019711969C938E93FE01E55BFF4FD9
:1039C000808191810097D1F627C08E01055B1F4F42
:1039D000FE01E35BFF4F60817181828193810E94D0
:1039E00074BDDC01CB01F80191838083DE01A95B0A
:1039F000BF4FFE01E55BFF4F808191818D939C93CA
:103A0000FE01E95BFF4F808191810197F1F7FE0193
:103A1000E95BFF4F918380830E94280BFE01ED5BE1
:103A2000FF4F80E090E0AAE7B3E480839183A28314
:103A3000B3838E01015C1F4FFE01ED5BFF4F608180
:103A400071818281938126E636E646E655E40E943E
:103A50004ABFDC01CB01F80180839183A283B38349
:103A6000FE01FF96608171818281938120E030E0C8
:103A700040E85FE30E9450C188232CF481E090E08D
:103A80009EAF8DAF46C0FE01FF966081718182813D
:103A9000938120E03FEF4FE757E40E94F0C01816F3
:103AA00064F5FE01ED5BFF4F60817181828193813E
:103AB00020E030E040E251E40E944ABFDC01CB014B
:103AC000BC01CD010E9474BDDC01CB019EAF8DAF66
:103AD0000FC080E791E09CAF8BAF8BAD9CAD0197A1
:103AE000F1F79CAF8BAF8DAD9EAD01979EAF8DAFC3
:103AF0008DAD9EAD009769F716C0FE01FF966081FF
:103B00007181828193810E9474BDDC01CB019EAFE3
:103B10008DAF8DAD9EAD9AAF89AF89AD9AAD01974E
:103B2000F1F79AAF89AF8091180390911903833010
:103B300091050CF04DC20E94DD124AC220911E0375
:103B400030911F03409120035091210380912C0359
:103B500090912D03A0912E03B0912F03821793070C
:103B6000A407B50708F010C120911E0330911F0370
:103B700040912003509121038091280390912903C3
:103B8000A0912A03B0912B0382179307A407B507CE
:103B900008F0FAC080911A0390911B03019690934C
:103BA0001B0380931A0380E090E0AAE7B3E48DAB97
:103BB0009EABAFABB8AF6DA97EA98FA998AD26E635
:103BC00036E646E655E40E944ABFDC01CB0189ABEC
:103BD0009AABABABBCAB69A97AA98BA99CA920E035
:103BE00030E040E85FE30E9450C188232CF481E07C
:103BF00090E098AB8FA73FC069A97AA98BA99CA92F
:103C000020E03FEF4FE757E40E94F0C018164CF554
:103C10006DA97EA98FA998AD20E030E040E251E483
:103C20000E944ABFDC01CB01BC01CD010E9474BDE2
:103C3000DC01CB0198AB8FA70FC080E791E09EA776
:103C40008DA78DA59EA50197F1F79EA78DA78FA59E
:103C500098A9019798AB8FA78FA598A9009769F7A6
:103C600014C069A97AA98BA99CA90E9474BDDC0122
:103C7000CB0198AB8FA78FA598A99CA78BA78BA5E5
:103C80009CA50197F1F79CA78BA70E943D0B80E0B4
:103C900090E0AAE7B3E48FA398A7A9A7BAA76FA15A
:103CA00078A589A59AA526E636E646E655E40E945B
:103CB0004ABFDC01CB018BA39CA3ADA3BEA36BA128
:103CC0007CA18DA19EA120E030E040E85FE30E944E
:103CD00050C188232CF481E090E09AA389A33FC0CF
:103CE0006BA17CA18DA19EA120E03FEF4FE757E49F
:103CF0000E94F0C018164CF56FA178A589A59AA569
:103D000020E030E040E251E40E944ABFDC01CB01F8
:103D1000BC01CD010E9474BDDC01CB019AA389A333
:103D20000FC080E791E098A38F8F8F8D98A10197A6
:103D3000F1F798A38F8F89A19AA101979AA389A3DC
:103D400089A19AA1009769F714C06BA17CA18DA1EC
:103D50009EA10E9474BDDC01CB019AA389A389A115
:103D60009AA19E8F8D8F8D8D9E8D0197F1F79E8FDD
:103D70008D8F80911A0390911B03853091050CF073
:103D800027C10E94DD1224C120912803309129030C
:103D900040912A0350912B0380911E0390911F03A1
:103DA000A0912003B091210382179307A407B507C0
:103DB00008F00EC1209128033091290340912A0375
:103DC00050912B0380912C0390912D03A0912E03F1
:103DD000B0912F0382179307A407B50708F0F8C026
:103DE00080911C0390911D03019690931D03809375
:103DF0001C0380E090E0AAE7B3E4898F9A8FAB8F31
:103E0000BC8F698D7A8D8B8D9C8D26E636E646E6D5
:103E100055E40E944ABFDC01CB018D8B9E8BAF8B9A
:103E2000B88F6D897E898F89988D20E030E040E8D9
:103E30005FE30E9450C188232CF481E090E09C8BCA
:103E40008B8B3FC06D897E898F89988D20E03FEFF5
:103E50004FE757E40E94F0C018164CF5698D7A8D33
:103E60008B8D9C8D20E030E040E251E40E944ABFFF
:103E7000DC01CB01BC01CD010E9474BDDC01CB0192
:103E80009C8B8B8B0FC080E791E09A8B898B898903
:103E90009A890197F1F79A8B898B8B899C89019775
:103EA0009C8B8B8B8B899C89009769F714C06D89DB
:103EB0007E898F89988D0E9474BDDC01CB019C8B1B
:103EC0008B8B8B899C89988B8F878F85988901979D
:103ED000F1F7988B8F870E94520B80E090E0AAE761
:103EE000B3E48B879C87AD87BE876B857C858D858A
:103EF0009E8526E636E646E655E40E944ABFDC018A
:103F0000CB018F839887A987BA876F817885898548
:103F10009A8520E030E040E85FE30E9450C18823AA
:103F20002CF481E090E09E838D833FC06F81788583
:103F300089859A8520E03FEF4FE757E40E94F0C063
:103F400018164CF56B857C858D859E8520E030E0CC
:103F500040E251E40E944ABFDC01CB01BC01CD012B
:103F60000E9474BDDC01CB019E838D830FC080E76E
:103F700091E09C838B838B819C810197F1F79C83DB
:103F80008B838D819E8101979E838D838D819E8100
:103F9000009769F714C06F81788589859A850E949A
:103FA00074BDDC01CB019E838D838D819E819A83BC
:103FB000898389819A810197F1F79A838983809116
:103FC0001C0390911D038530910514F40E94DD12AD
:103FD000CC53DF4F0FB6F894DEBF0FBECDBFCF91ED
:103FE000DF911F910F910895DF93CF93CDB7DEB787
:103FF000F8940E94230E0E947D0A0E948E0B0E945C
:10400000900C0E94530C0E94400E0E94570E789410
:10401000CF91DF9108950F931F93DF93CF93CDB787
:10402000DEB7CC5FDB400FB6F894DEBF0FBECDBF6E
:104030000E94F41F0E9495000E949405FE01E55025
:10404000F44F118210820E94130B83E00E94A70B91
:104050008093090382E00E94A70B80930A0381E00A
:104060000E94A70B80930B031092080380910A0310
:10407000823320F080910903823360F480910A0337
:10408000823310F40C9401BC80910B03823310F442
:104090000C9401BCDE01A550B44FFE01E550F44F75
:1040A00080819181019611969C938E93FE01E5503B
:1040B000F44F808191818130910521F482E390E079
:1040C0000E942610FE01E550F44F808191818230DC
:1040D000910509F08DC381E490E00E9426100E94B2
:1040E000330FFE01E950F44F80E090E0AAE7B3E41B
:1040F00080839183A283B3838E010D50144FFE0100
:10410000E950F44F608171818281938126E636E621
:1041100046E655E40E944ABFDC01CB01F8018083EA
:104120009183A283B383FE01ED50F44F60817181CE
:104130008281938120E030E040E85FE30E9450C13B
:10414000882344F4FE01EF50F44F81E090E0918326
:10415000808364C0FE01ED50F44F608171818281E3
:10416000938120E03FEF4FE757E40E94F0C018161C
:104170000CF043C0FE01E950F44F608171818281EF
:10418000938120E030E040E251E40E944ABFDC012C
:10419000CB018E010F50144FBC01CD010E9474BDA4
:1041A000DC01CB01F801918380831FC0FE01E15146
:1041B000F44F80E791E091838083FE01E151F44F59
:1041C000808191810197F1F7FE01E151F44F9183D4
:1041D0008083DE01AF50B44FFE01EF50F44F808179
:1041E0009181019711969C938E93FE01EF50F44FAD
:1041F000808191810097D1F627C08E010F50144F16
:10420000FE01ED50F44F60817181828193810E94A3
:1042100074BDDC01CB01F80191838083DE01A351E1
:10422000B44FFE01EF50F44F808191818D939C93A8
:10423000FE01E351F44F808191810197F1F7FE0176
:10424000E351F44F91838083FE01E751F44F80E006
:1042500090E0AAE7B3E480839183A283B3838E01C5
:104260000B51144FFE01E751F44F6081718182813F
:10427000938126E636E646E655E40E944ABFDC0115
:10428000CB01F80180839183A283B383FE01EB51BC
:10429000F44F608171818281938120E030E040E8B9
:1042A0005FE30E9450C1882344F4FE01ED51F44FB6
:1042B00081E090E09183808364C0FE01EB51F44F74
:1042C000608171818281938120E03FEF4FE757E465
:1042D0000E94F0C018160CF043C0FE01E751F44FE5
:1042E000608171818281938120E030E040E251E47D
:1042F0000E944ABFDC01CB018E010D51144FBC015D
:10430000CD010E9474BDDC01CB01F8019183808353
:104310001FC0FE01EF51F44F80E791E0918380834D
:10432000FE01EF51F44F808191810197F1F7FE0179
:10433000EF51F44F91838083DE01AD51B44FFE0104
:10434000ED51F44F80819181019711969C938E934A
:10435000FE01ED51F44F808191810097D1F627C085
:104360008E010D51144FFE01EB51F44F60817181AC
:10437000828193810E9474BDDC01CB01F80191839D
:104380008083DE01A152B44FFE01ED51F44F8081D4
:1043900091818D939C93FE01E152F44F8081918134
:1043A0000197F1F7FE01E152F44F918380838AE592
:1043B00090E00E945F10FE01E552F44F80E090E033
:1043C000AAE7B3E480839183A283B3838E01095269
:1043D000144FFE01E552F44F608171818281938117
:1043E00026E636E646E655E40E944ABFDC01CB01EC
:1043F000F80180839183A283B383FE01E952F44FD5
:10440000608171818281938120E030E040E85FE348
:104410000E9450C1882344F4FE01EB52F44F81E026
:1044200090E09183808364C0FE01E952F44F608183
:1044300071818281938120E03FEF4FE757E40E9432
:10444000F0C018160CF043C0FE01E552F44F608135
:1044500071818281938120E030E040E251E40E944A
:104460004ABFDC01CB018E010B52144FBC01CD01C0
:104470000E9474BDDC01CB01F801918380831FC0D1
:10448000FE01ED52F44F80E791E091838083FE01BD
:10449000ED52F44F808191810197F1F7FE01ED52C9
:1044A000F44F91838083DE01AB52B44FFE01EB5297
:1044B000F44F80819181019711969C938E93FE0118
:1044C000EB52F44F808191810097D1F627C08E0185
:1044D0000B52144FFE01E952F44F608171818281C9
:1044E00093810E9474BDDC01CB01F801918380832C
:1044F000DE01AF52B44FFE01EB52F44F8081918147
:104500008D939C93FE01EF52F44F8081918101972E
:10451000F1F7FE01EF52F44F91838083FE01E353E4
:10452000F44F80E090E0AAE7B3E480839183A28314
:10453000B3838E010753144FFE01E353F44F6081A0
:1045400071818281938126E636E646E655E40E9433
:104550004ABFDC01CB01F80180839183A283B3833E
:10456000FE01E753F44F608171818281938120E0E5
:1045700030E040E85FE30E9450C1882344F4FE012C
:10458000E953F44F81E090E09183808364C0FE01A1
:10459000E753F44F608171818281938120E03FEF86
:1045A0004FE757E40E94F0C018160CF043C0FE011C
:1045B000E353F44F608171818281938120E030E088
:1045C00040E251E40E944ABFDC01CB018E01095355
:1045D000144FBC01CD010E9474BDDC01CB01F80178
:1045E000918380831FC0FE01EB53F44F80E791E07D
:1045F00091838083FE01EB53F44F80819181019779
:10460000F1F7FE01EB53F44F91838083DE01A95350
:10461000B44FFE01E953F44F8081918101971196C7
:104620009C938E93FE01E953F44F80819181009712
:10463000D1F627C08E010953144FFE01E753F44F02
:1046400060817181828193810E9474BDDC01CB0104
:10465000F80191838083DE01AD53B44FFE01E9532D
:10466000F44F808191818D939C93FE01ED53F44F23
:10467000808191810197F1F7FE01ED53F44F918311
:1046800080830E94330FFE01E154F44F80E090E0FC
:10469000AAE7B3E480839183A283B3838E01055498
:1046A000144FFE01E154F44F608171818281938146
:1046B00026E636E646E655E40E944ABFDC01CB0119
:1046C000F80180839183A283B383FE01E554F44F04
:1046D000608171818281938120E030E040E85FE376
:1046E0000E9450C1882344F4FE01E754F44F81E056
:1046F00090E09183808364C0FE01E554F44F6081B3
:1047000071818281938120E03FEF4FE757E40E945F
:10471000F0C018160CF043C0FE01E154F44F608164
:1047200071818281938120E030E040E251E40E9477
:104730004ABFDC01CB018E010754144FBC01CD01EF
:104740000E9474BDDC01CB01F801918380831FC0FE
:10475000FE01E954F44F80E791E091838083FE01EC
:10476000E954F44F808191810197F1F7FE01E954FA
:10477000F44F91838083DE01A754B44FFE01E754C8
:10478000F44F80819181019711969C938E93FE0145
:10479000E754F44F808191810097D1F656CC8E0179
:1047A0000754144FFE01E554F44F608171818281FA
:1047B00093810E9474BDDC01CB01F8019183808359
:1047C000DE01AB54B44FFE01E754F44F8081918178
:1047D00011969C938E93FE01EB54F44F808191814E
:1047E0000197F1F7FE01EB54F44F918380832DCCB8
:1047F000FE01E550F44F808191818330910509F0ED
:104800004AC481E490E00E9426100E94330FFE010A
:10481000EF54F44F80E090E0AAE7B3E48083918303
:10482000A283B3838E010355144FFE01EF54F44F5E
:10483000608171818281938126E636E646E655E401
:104840000E944ABFDC01CB01F80180839183A283DF
:10485000B383FE01E355F44F6081718182819381BE
:1048600020E030E040E85FE30E9450C1882344F438
:10487000FE01E555F44F81E090E09183808364C0B0
:10488000FE01E355F44F608171818281938120E0C4
:104890003FEF4FE757E40E94F0C018160CF043C0FA
:1048A000FE01EF54F44F608171818281938120E099
:1048B00030E040E251E40E944ABFDC01CB018E01AE
:1048C0000555144FBC01CD010E9474BDDC01CB0124
:1048D000F801918380831FC0FE01E755F44F80E704
:1048E00091E091838083FE01E755F44F80819181AF
:1048F0000197F1F7FE01E755F44F91838083DE01C4
:10490000A555B44FFE01E555F44F80819181019783
:1049100011969C938E93FE01E555F44F8081918111
:104920000097D1F627C08E010555144FFE01E355BF
:10493000F44F60817181828193810E9474BDDC019A
:10494000CB01F80191838083DE01A955B44FFE01AC
:10495000E555F44F808191818D939C93FE01E9553B
:10496000F44F808191810197F1F7FE01E955F44FF1
:10497000918380838AE590E00E945F100E94330F4C
:10498000FE01ED55F44F80E090E0A8E4B3E48083AD
:104990009183A283B3838E010156144FFE01ED551E
:1049A000F44F608171818281938126E636E646E686
:1049B00055E40E944ABFDC01CB01F801808391835A
:1049C000A283B383FE01E156F44F6081718182813D
:1049D000938120E030E040E85FE30E9450C18823EB
:1049E00044F4FE01E356F44F81E090E0918380832C
:1049F00064C0FE01E156F44F608171818281938130
:104A000020E03FEF4FE757E40E94F0C018160CF08B
:104A100043C0FE01ED55F44F608171818281938125
:104A200020E030E040E251E40E944ABFDC01CB01CB
:104A30008E010356144FBC01CD010E9474BDDC01F0
:104A4000CB01F801918380831FC0FE01E556F44F2E
:104A500080E791E091838083FE01E556F44F8081E9
:104A600091810197F1F7FE01E556F44F9183808320
:104A7000DE01A356B44FFE01E356F44F80819181CD
:104A8000019711969C938E93FE01E356F44F80811B
:104A900091810097D1F627C08E010356144FFE0175
:104AA000E156F44F60817181828193810E9474BDCF
:104AB000DC01CB01F80191838083DE01A756B44F5E
:104AC000FE01E356F44F808191818D939C93FE010A
:104AD000E756F44F808191810197F1F7FE01E75687
:104AE000F44F918380830E944016FE01EB56F44FF1
:104AF00080E090E0AAE7B3E480839183A283B3834C
:104B00008E010F56144FFE01EB56F44F60817181F8
:104B10008281938126E636E646E655E40E944ABF46
:104B2000DC01CB01F80180839183A283B383FE0172
:104B3000EF56F44F608171818281938120E030E0F3
:104B400040E85FE30E9450C1882344F4FE01E1572E
:104B5000F44F81E090E09183808364C0FE01EF56C2
:104B6000F44F608171818281938120E03FEF4FE7B4
:104B700057E40E94F0C018160CF043C0FE01EB563B
:104B8000F44F608171818281938120E030E040E2C6
:104B900051E40E944ABFDC01CB018E010157144F42
:104BA000BC01CD010E9474BDDC01CB01F8019183F1
:104BB00080831FC0FE01E357F44F80E791E09183AB
:104BC0008083FE01E357F44F808191810197F1F7D3
:104BD000FE01E357F44F91838083DE01A157B44F68
:104BE000FE01E157F44F80819181019711969C93CA
:104BF0008E93FE01E157F44F808191810097D1F6A9
:104C000027C08E010157144FFE01EF56F44F60810B
:104C10007181828193810E9474BDDC01CB01F80116
:104C200091838083DE01A557B44FFE01E157F44F15
:104C3000808191818D939C93FE01E557F44F808193
:104C400091810197F1F7FE01E557F44F918380833D
:104C5000FE01E957F44F80E090E0AAE7B3E48083D7
:104C60009183A283B3838E010D57144FFE01E95740
:104C7000F44F608171818281938126E636E646E6B3
:104C800055E40E944ABFDC01CB01F8018083918387
:104C9000A283B383FE01ED57F44F6081718182815D
:104CA000938120E030E040E85FE30E9450C1882318
:104CB00044F4FE01EF57F44F81E090E0918380834C
:104CC00064C0FE01ED57F44F608171818281938150
:104CD00020E03FEF4FE757E40E94F0C018160CF0B9
:104CE00043C0FE01E957F44F608171818281938155
:104CF00020E030E040E251E40E944ABFDC01CB01F9
:104D00008E010F57144FBC01CD010E9474BDDC0110
:104D1000CB01F801918380831FC0FE01E158F44F5D
:104D200080E791E091838083FE01E158F44F808118
:104D300091810197F1F7FE01E158F44F918380834F
:104D4000DE01AF57B44FFE01EF57F44F80819181E0
:104D5000019711969C938E93FE01EF57F44F80813B
:104D600091810097D1F627C08E010F57144FFE0195
:104D7000ED57F44F60817181828193810E9474BDEF
:104D8000DC01CB01F80191838083DE01A358B44F8D
:104D9000FE01EF57F44F808191818D939C93FE012A
:104DA000E358F44F808191810197F1F7FE01E358B8
:104DB000F44F918380838AE590E00E945F10FE01AA
:104DC000E758F44F80E090E0AAE7B3E48083918352
:104DD000A283B3838E010B58144FFE01E758F44FA2
:104DE000608171818281938126E636E646E655E44C
:104DF0000E944ABFDC01CB01F80180839183A2832A
:104E0000B383FE01EB58F44F6081718182819381FD
:104E100020E030E040E85FE30E9450C1882344F482
:104E2000FE01ED58F44F81E090E09183808364C0EF
:104E3000FE01EB58F44F608171818281938120E003
:104E40003FEF4FE757E40E94F0C018160CF043C044
:104E5000FE01E758F44F608171818281938120E0E7
:104E600030E040E251E40E944ABFDC01CB018E01F8
:104E70000D58144FBC01CD010E9474BDDC01CB0163
:104E8000F801918380831FC0FE01EF58F44F80E743
:104E900091E091838083FE01EF58F44F80819181EE
:104EA0000197F1F7FE01EF58F44F91838083DE0103
:104EB000AD58B44FFE01ED58F44F808191810197B8
:104EC00011969C938E93FE01ED58F44F8081918151
:104ED0000097D1F627C08E010D58144FFE01EB58F4
:104EE000F44F60817181828193810E9474BDDC01E5
:104EF000CB01F80191838083DE01A159B44FFE01FB
:104F0000ED58F44F808191818D939C93FE01E1597E
:104F1000F44F808191810197F1F7FE01E159F44F3F
:104F2000918380830E94330FFE01E559F44F80E0A6
:104F300090E0AAE7B3E480839183A283B3838E01D8
:104F40000959144FFE01E559F44F60817181828146
:104F5000938126E636E646E655E40E944ABFDC0128
:104F6000CB01F80180839183A283B383FE01E959C9
:104F7000F44F608171818281938120E030E040E8CC
:104F80005FE30E9450C1882344F4FE01EB59F44FC3
:104F900081E090E09183808365C0FE01E959F44F80
:104FA000608171818281938120E03FEF4FE757E478
:104FB0000E94F0C018160CF044C0FE01E559F44FF1
:104FC000608171818281938120E030E040E251E490
:104FD0000E944ABFDC01CB018E010B59144FBC016A
:104FE000CD010E9474BDDC01CB01F8019183808367
:104FF0001FC0FE01ED59F44F80E791E0918380835B
:10500000FE01ED59F44F808191810197F1F7FE0186
:10501000ED59F44F91838083DE01AB59B44FFE010B
:10502000EB59F44F80819181019711969C938E9357
:10503000FE01EB59F44F808191810097D1F60C94D9
:1050400025208E010B59144FFE01E959F44F608160
:105050007181828193810E9474BDDC01CB01F801D2
:1050600091838083DE01AF59B44FFE01EB59F44FB9
:105070008081918111969C938E93FE01EF59F44F9C
:10508000808191810197F1F7FE01EF59F44F9183EF
:1050900080830C942520FE01E550F44F808191819E
:1050A0008430910509F08FC381E490E00E942610BE
:1050B0000E94330FFE01E35AF44F80E090E0AAE72C
:1050C000B3E480839183A283B3838E01075A144F84
:1050D000FE01E35AF44F608171818281938126E65B
:1050E00036E646E655E40E944ABFDC01CB01F801F2
:1050F00080839183A283B383FE01E75AF44F6081DA
:1051000071818281938120E030E040E85FE30E947A
:1051100050C1882344F4FE01E95AF44F81E090E045
:105120009183808364C0FE01E75AF44F60817181EE
:105130008281938120E03FEF4FE757E40E94F0C067
:1051400018160CF043C0FE01E35AF44F60817181E0
:105150008281938120E030E040E251E40E944ABF26
:10516000DC01CB018E01095A144FBC01CD010E9414
:1051700074BDDC01CB01F801918380831FC0FE0167
:10518000EB5AF44F80E791E091838083FE01EB5A64
:10519000F44F808191810197F1F7FE01EB5AF44FB2
:1051A00091838083DE01A95AB44FFE01E95AF44F7E
:1051B00080819181019711969C938E93FE01E95A0B
:1051C000F44F808191810097D1F627C08E01095A52
:1051D000144FFE01E75AF44F6081718182819381FF
:1051E0000E9474BDDC01CB01F80191838083DE0154
:1051F000AD5AB44FFE01E95AF44F808191818D93ED
:105200009C93FE01ED5AF44F808191810197F1F753
:10521000FE01ED5AF44F91838083FE01E15BF44F70
:1052200080E090E0AAE7B3E480839183A283B38314
:105230008E01055B144FFE01E15BF44F60817181CB
:105240008281938126E636E646E655E40E944ABF0F
:10525000DC01CB01F80180839183A283B383FE013B
:10526000E55BF44F608171818281938120E030E0C1
:1052700040E85FE30E9450C1882344F4FE01E75BED
:10528000F44F81E090E09183808364C0FE01E55B90
:10529000F44F608171818281938120E03FEF4FE77D
:1052A00057E40E94F0C018160CF043C0FE01E15B09
:1052B000F44F608171818281938120E030E040E28F
:1052C00051E40E944ABFDC01CB018E01075B144F01
:1052D000BC01CD010E9474BDDC01CB01F8019183BA
:1052E00080831FC0FE01E95BF44F80E791E091836A
:1052F0008083FE01E95BF44F808191810197F1F792
:10530000FE01E95BF44F91838083DE01A75BB44F1C
:10531000FE01E75BF44F80819181019711969C9388
:105320008E93FE01E75BF44F808191810097D1F667
:1053300027C08E01075B144FFE01E55BF44F6081CF
:105340007181828193810E9474BDDC01CB01F801DF
:1053500091838083DE01AB5BB44FFE01E75BF44FCA
:10536000808191818D939C93FE01EB5BF44F808152
:1053700091810197F1F7FE01EB5BF44F91838083FC
:105380008AE590E00E945F10FE01EF5BF44F80E041
:1053900090E0AAE7B3E480839183A283B3838E0174
:1053A000035C144FFE01EF5BF44F608171818281D9
:1053B000938126E636E646E655E40E944ABFDC01C4
:1053C000CB01F80180839183A283B383FE01E35C68
:1053D000F44F608171818281938120E030E040E868
:1053E0005FE30E9450C1882344F4FE01E55CF44F62
:1053F00081E090E09183808364C0FE01E35CF44F20
:10540000608171818281938120E03FEF4FE757E413
:105410000E94F0C018160CF043C0FE01EF5BF44F81
:10542000608171818281938120E030E040E251E42B
:105430000E944ABFDC01CB018E01055C144FBC0108
:10544000CD010E9474BDDC01CB01F8019183808302
:105450001FC0FE01E75CF44F80E791E091838083F9
:10546000FE01E75CF44F808191810197F1F7FE0125
:10547000E75CF44F91838083DE01A55CB44FFE01AD
:10548000E55CF44F80819181019711969C938E93F6
:10549000FE01E55CF44F808191810097D1F627C031
:1054A0008E01055C144FFE01E35CF44F6081718155
:1054B000828193810E9474BDDC01CB01F80191834C
:1054C0008083DE01A95CB44FFE01E55CF44F80816E
:1054D00091818D939C93FE01E95CF44F80819181D1
:1054E0000197F1F7FE01E95CF44F91838083FE019F
:1054F000ED5CF44F80E090E0AAE7B3E48083918311
:10550000A283B3838E01015D144FFE01ED5CF44F65
:10551000608171818281938126E636E646E655E414
:105520000E944ABFDC01CB01F80180839183A283F2
:10553000B383FE01E15DF44F6081718182819381CB
:1055400020E030E040E85FE30E9450C1882344F44B
:10555000FE01E35DF44F81E090E09183808364C0BD
:10556000FE01E15DF44F608171818281938120E0D1
:105570003FEF4FE757E40E94F0C018160CF043C00D
:10558000FE01ED5CF44F608171818281938120E0A6
:1055900030E040E251E40E944ABFDC01CB018E01C1
:1055A000035D144FBC01CD010E9474BDDC01CB0131
:1055B000F801918380831FC0FE01E55DF44F80E711
:1055C00091E091838083FE01E55DF44F80819181BC
:1055D0000197F1F7FE01E55DF44F91838083DE01D1
:1055E000A35DB44FFE01E35DF44F8081918101978B
:1055F00011969C938E93FE01E35DF44F808191811F
:105600000097D1F627C08E01035D144FFE01E15DC6
:10561000F44F60817181828193810E9474BDDC01AD
:10562000CB01F80191838083DE01A75DB44FFE01B9
:10563000E35DF44F808191818D939C93FE01E75D42
:10564000F44F808191810197F1F7FE01E75DF44FFE
:10565000918380830E94330FFE01EB5DF44F80E065
:1056600090E0AAE7B3E480839183A283B3838E01A1
:105670000F5D144FFE01EB5DF44F608171818281FB
:10568000938126E636E646E655E40E944ABFDC01F1
:10569000CB01F80180839183A283B383FE01EF5D88
:1056A000F44F608171818281938120E030E040E895
:1056B0005FE30E9450C1882344F4FE01E15EF44F91
:1056C00081E090E09183808365C0FE01EF5DF44F3F
:1056D000608171818281938120E03FEF4FE757E441
:1056E0000E94F0C018160CF044C0FE01EB5DF44FB0
:1056F000608171818281938120E030E040E251E459
:105700000E944ABFDC01CB018E01015E144FBC0137
:10571000CD010E9474BDDC01CB01F801918380832F
:105720001FC0FE01E35EF44F80E791E09183808328
:10573000FE01E35EF44F808191810197F1F7FE0154
:10574000E35EF44F91838083DE01A15EB44FFE01DE
:10575000E15EF44F80819181019711969C938E9325
:10576000FE01E15EF44F808191810097D1F60C94A7
:1057700025208E01015E144FFE01EF5DF44F608124
:105780007181828193810E9474BDDC01CB01F8019B
:1057900091838083DE01A55EB44FFE01E15EF44F8C
:1057A0008081918111969C938E93FE01E55EF44F6A
:1057B000808191810197F1F7FE01E55EF44F9183BD
:1057C00080830C942520FE01E550F44F8081918167
:1057D0008530910509F042C481E490E00E942610D2
:1057E0000E94330FFE01E95EF44F80E090E0AAE7EB
:1057F000B3E480839183A283B3838E010D5E144F43
:10580000FE01E95EF44F608171818281938126E619
:1058100036E646E655E40E944ABFDC01CB01F801BA
:1058200080839183A283B383FE01ED5EF44F608198
:1058300071818281938120E030E040E85FE30E9443
:1058400050C1882344F4FE01EF5EF44F81E090E004
:105850009183808364C0FE01ED5EF44F60817181AD
:105860008281938120E03FEF4FE757E40E94F0C030
:1058700018160CF043C0FE01E95EF44F608171819F
:105880008281938120E030E040E251E40E944ABFEF
:10589000DC01CB018E010F5E144FBC01CD010E94D3
:1058A00074BDDC01CB01F801918380831FC0FE0130
:1058B000E15FF44F80E791E091838083FE01E15F37
:1058C000F44F808191810197F1F7FE01E15FF44F80
:1058D00091838083DE01AF5EB44FFE01EF5EF44F33
:1058E00080819181019711969C938E93FE01EF5ECA
:1058F000F44F808191810097D1F627C08E010F5E11
:10590000144FFE01ED5EF44F6081718182819381BD
:105910000E9474BDDC01CB01F80191838083DE011C
:10592000A35FB44FFE01EF5EF44F808191818D93B0
:105930009C93FE01E35FF44F808191810197F1F721
:10594000FE01E35FF44F91838083FE01E75FF44F34
:1059500080E090E0AAE7B3E480839183A283B383DD
:105960008E010B5F144FFE01E75FF44F6081718180
:105970008281938126E636E646E655E40E944ABFD8
:10598000DC01CB01F80180839183A283B383FE0104
:10599000EB5FF44F608171818281938120E030E080
:1059A00040E85FE30E9450C1882344F4FE01ED5FAC
:1059B000F44F81E090E09183808364C0FE01EB5F4F
:1059C000F44F608171818281938120E03FEF4FE746
:1059D00057E40E94F0C018160CF043C0FE01E75FC8
:1059E000F44F608171818281938120E030E040E258
:1059F00051E40E944ABFDC01CB018E010D5F144FC0
:105A0000BC01CD010E9474BDDC01CB01F801918382
:105A100080831FC0FE01EF5FF44F80E791E0918328
:105A20008083FE01EF5FF44F808191810197F1F750
:105A3000FE01EF5FF44F91838083DE01AD5FB44FD1
:105A4000FE01ED5FF44F80819181019711969C9347
:105A50008E93FE01ED5FF44F808191810097D1F626
:105A600027C08E010D5F144FFE01EB5FF44F608184
:105A70007181828193810E9474BDDC01CB01F801A8
:105A800091838083DE01A150B54FFE01ED5FF44F9D
:105A9000808191818D939C93FE01E150F54F80812F
:105AA00091810197F1F7FE01E150F54F91838083D9
:105AB0008AE590E00E944C10FE01E550F54F80E031
:105AC00090E0AAE7B3E480839183A283B3838E013D
:105AD0000950154FFE01E550F54F608171818281BB
